{
  "address": "0xd06814AC6CD4A5192E3767a7329a731A3d2E3F1C",
  "abi": [
    {
      "anonymous": false,
      "inputs": [
        {
          "indexed": true,
          "internalType": "contract IAToken",
          "name": "aToken",
          "type": "address"
        },
        {
          "indexed": false,
          "internalType": "contract ILendingPoolAddressesProviderRegistry",
          "name": "lendingPoolAddressesProviderRegistry",
          "type": "address"
        },
        {
          "indexed": false,
          "internalType": "uint8",
          "name": "decimals",
          "type": "uint8"
        },
        {
          "indexed": false,
          "internalType": "string",
          "name": "name",
          "type": "string"
        },
        {
          "indexed": false,
          "internalType": "string",
          "name": "symbol",
          "type": "string"
        },
        {
          "indexed": false,
          "internalType": "address",
          "name": "owner",
          "type": "address"
        }
      ],
      "name": "ATokenYieldSourceInitialized",
      "type": "event"
    },
    {
      "anonymous": false,
      "inputs": [
        {
          "indexed": true,
          "internalType": "address",
          "name": "owner",
          "type": "address"
        },
        {
          "indexed": true,
          "internalType": "address",
          "name": "spender",
          "type": "address"
        },
        {
          "indexed": false,
          "internalType": "uint256",
          "name": "value",
          "type": "uint256"
        }
      ],
      "name": "Approval",
      "type": "event"
    },
    {
      "anonymous": false,
      "inputs": [
        {
          "indexed": true,
          "internalType": "address",
          "name": "previousAssetManager",
          "type": "address"
        },
        {
          "indexed": true,
          "internalType": "address",
          "name": "newAssetManager",
          "type": "address"
        }
      ],
      "name": "AssetManagerTransferred",
      "type": "event"
    },
    {
      "anonymous": false,
      "inputs": [
        {
          "indexed": true,
          "internalType": "address",
          "name": "previousOwner",
          "type": "address"
        },
        {
          "indexed": true,
          "internalType": "address",
          "name": "newOwner",
          "type": "address"
        }
      ],
      "name": "OwnershipTransferred",
      "type": "event"
    },
    {
      "anonymous": false,
      "inputs": [
        {
          "indexed": true,
          "internalType": "address",
          "name": "from",
          "type": "address"
        },
        {
          "indexed": false,
          "internalType": "uint256",
          "name": "shares",
          "type": "uint256"
        },
        {
          "indexed": false,
          "internalType": "uint256",
          "name": "amount",
          "type": "uint256"
        }
      ],
      "name": "RedeemedToken",
      "type": "event"
    },
    {
      "anonymous": false,
      "inputs": [
        {
          "indexed": true,
          "internalType": "address",
          "name": "from",
          "type": "address"
        },
        {
          "indexed": false,
          "internalType": "uint256",
          "name": "amount",
          "type": "uint256"
        }
      ],
      "name": "Sponsored",
      "type": "event"
    },
    {
      "anonymous": false,
      "inputs": [
        {
          "indexed": true,
          "internalType": "address",
          "name": "from",
          "type": "address"
        },
        {
          "indexed": false,
          "internalType": "uint256",
          "name": "shares",
          "type": "uint256"
        },
        {
          "indexed": false,
          "internalType": "uint256",
          "name": "amount",
          "type": "uint256"
        },
        {
          "indexed": true,
          "internalType": "address",
          "name": "to",
          "type": "address"
        }
      ],
      "name": "SuppliedTokenTo",
      "type": "event"
    },
    {
      "anonymous": false,
      "inputs": [
        {
          "indexed": true,
          "internalType": "address",
          "name": "from",
          "type": "address"
        },
        {
          "indexed": true,
          "internalType": "address",
          "name": "to",
          "type": "address"
        },
        {
          "indexed": false,
          "internalType": "uint256",
          "name": "value",
          "type": "uint256"
        }
      ],
      "name": "Transfer",
      "type": "event"
    },
    {
      "anonymous": false,
      "inputs": [
        {
          "indexed": true,
          "internalType": "address",
          "name": "from",
          "type": "address"
        },
        {
          "indexed": true,
          "internalType": "address",
          "name": "to",
          "type": "address"
        },
        {
          "indexed": false,
          "internalType": "uint256",
          "name": "amount",
          "type": "uint256"
        },
        {
          "indexed": true,
          "internalType": "contract IERC20Upgradeable",
          "name": "token",
          "type": "address"
        }
      ],
      "name": "TransferredERC20",
      "type": "event"
    },
    {
      "inputs": [],
      "name": "aToken",
      "outputs": [
        {
          "internalType": "contract ATokenInterface",
          "name": "",
          "type": "address"
        }
      ],
      "stateMutability": "view",
      "type": "function"
    },
    {
      "inputs": [
        {
          "internalType": "address",
          "name": "owner",
          "type": "address"
        },
        {
          "internalType": "address",
          "name": "spender",
          "type": "address"
        }
      ],
      "name": "allowance",
      "outputs": [
        {
          "internalType": "uint256",
          "name": "",
          "type": "uint256"
        }
      ],
      "stateMutability": "view",
      "type": "function"
    },
    {
      "inputs": [
        {
          "internalType": "address",
          "name": "spender",
          "type": "address"
        },
        {
          "internalType": "uint256",
          "name": "amount",
          "type": "uint256"
        }
      ],
      "name": "approve",
      "outputs": [
        {
          "internalType": "bool",
          "name": "",
          "type": "bool"
        }
      ],
      "stateMutability": "nonpayable",
      "type": "function"
    },
    {
      "inputs": [],
      "name": "assetManager",
      "outputs": [
        {
          "internalType": "address",
          "name": "",
          "type": "address"
        }
      ],
      "stateMutability": "view",
      "type": "function"
    },
    {
      "inputs": [
        {
          "internalType": "address",
          "name": "account",
          "type": "address"
        }
      ],
      "name": "balanceOf",
      "outputs": [
        {
          "internalType": "uint256",
          "name": "",
          "type": "uint256"
        }
      ],
      "stateMutability": "view",
      "type": "function"
    },
    {
      "inputs": [
        {
          "internalType": "address",
          "name": "addr",
          "type": "address"
        }
      ],
      "name": "balanceOfToken",
      "outputs": [
        {
          "internalType": "uint256",
          "name": "",
          "type": "uint256"
        }
      ],
      "stateMutability": "nonpayable",
      "type": "function"
    },
    {
      "inputs": [],
      "name": "decimals",
      "outputs": [
        {
          "internalType": "uint8",
          "name": "",
          "type": "uint8"
        }
      ],
      "stateMutability": "view",
      "type": "function"
    },
    {
      "inputs": [
        {
          "internalType": "address",
          "name": "spender",
          "type": "address"
        },
        {
          "internalType": "uint256",
          "name": "subtractedValue",
          "type": "uint256"
        }
      ],
      "name": "decreaseAllowance",
      "outputs": [
        {
          "internalType": "bool",
          "name": "",
          "type": "bool"
        }
      ],
      "stateMutability": "nonpayable",
      "type": "function"
    },
    {
      "inputs": [],
      "name": "depositToken",
      "outputs": [
        {
          "internalType": "address",
          "name": "",
          "type": "address"
        }
      ],
      "stateMutability": "view",
      "type": "function"
    },
    {
      "inputs": [],
      "name": "freeze",
      "outputs": [],
      "stateMutability": "nonpayable",
      "type": "function"
    },
    {
      "inputs": [
        {
          "internalType": "address",
          "name": "spender",
          "type": "address"
        },
        {
          "internalType": "uint256",
          "name": "addedValue",
          "type": "uint256"
        }
      ],
      "name": "increaseAllowance",
      "outputs": [
        {
          "internalType": "bool",
          "name": "",
          "type": "bool"
        }
      ],
      "stateMutability": "nonpayable",
      "type": "function"
    },
    {
      "inputs": [
        {
          "internalType": "contract ATokenInterface",
          "name": "_aToken",
          "type": "address"
        },
        {
          "internalType": "contract ILendingPoolAddressesProviderRegistry",
          "name": "_lendingPoolAddressesProviderRegistry",
          "type": "address"
        },
        {
          "internalType": "uint8",
          "name": "_decimals",
          "type": "uint8"
        },
        {
          "internalType": "string",
          "name": "_symbol",
          "type": "string"
        },
        {
          "internalType": "string",
          "name": "_name",
          "type": "string"
        },
        {
          "internalType": "address",
          "name": "_owner",
          "type": "address"
        }
      ],
      "name": "initialize",
      "outputs": [
        {
          "internalType": "bool",
          "name": "",
          "type": "bool"
        }
      ],
      "stateMutability": "nonpayable",
      "type": "function"
    },
    {
      "inputs": [],
      "name": "lendingPoolAddressesProviderRegistry",
      "outputs": [
        {
          "internalType": "contract ILendingPoolAddressesProviderRegistry",
          "name": "",
          "type": "address"
        }
      ],
      "stateMutability": "view",
      "type": "function"
    },
    {
      "inputs": [],
      "name": "name",
      "outputs": [
        {
          "internalType": "string",
          "name": "",
          "type": "string"
        }
      ],
      "stateMutability": "view",
      "type": "function"
    },
    {
      "inputs": [],
      "name": "owner",
      "outputs": [
        {
          "internalType": "address",
          "name": "",
          "type": "address"
        }
      ],
      "stateMutability": "view",
      "type": "function"
    },
    {
      "inputs": [
        {
          "internalType": "uint256",
          "name": "redeemAmount",
          "type": "uint256"
        }
      ],
      "name": "redeemToken",
      "outputs": [
        {
          "internalType": "uint256",
          "name": "",
          "type": "uint256"
        }
      ],
      "stateMutability": "nonpayable",
      "type": "function"
    },
    {
      "inputs": [],
      "name": "renounceOwnership",
      "outputs": [],
      "stateMutability": "nonpayable",
      "type": "function"
    },
    {
      "inputs": [
        {
          "internalType": "address",
          "name": "newAssetManager",
          "type": "address"
        }
      ],
      "name": "setAssetManager",
      "outputs": [
        {
          "internalType": "bool",
          "name": "",
          "type": "bool"
        }
      ],
      "stateMutability": "nonpayable",
      "type": "function"
    },
    {
      "inputs": [
        {
          "internalType": "uint256",
          "name": "amount",
          "type": "uint256"
        }
      ],
      "name": "sponsor",
      "outputs": [],
      "stateMutability": "nonpayable",
      "type": "function"
    },
    {
      "inputs": [
        {
          "internalType": "uint256",
          "name": "mintAmount",
          "type": "uint256"
        },
        {
          "internalType": "address",
          "name": "to",
          "type": "address"
        }
      ],
      "name": "supplyTokenTo",
      "outputs": [],
      "stateMutability": "nonpayable",
      "type": "function"
    },
    {
      "inputs": [],
      "name": "symbol",
      "outputs": [
        {
          "internalType": "string",
          "name": "",
          "type": "string"
        }
      ],
      "stateMutability": "view",
      "type": "function"
    },
    {
      "inputs": [],
      "name": "totalSupply",
      "outputs": [
        {
          "internalType": "uint256",
          "name": "",
          "type": "uint256"
        }
      ],
      "stateMutability": "view",
      "type": "function"
    },
    {
      "inputs": [
        {
          "internalType": "address",
          "name": "recipient",
          "type": "address"
        },
        {
          "internalType": "uint256",
          "name": "amount",
          "type": "uint256"
        }
      ],
      "name": "transfer",
      "outputs": [
        {
          "internalType": "bool",
          "name": "",
          "type": "bool"
        }
      ],
      "stateMutability": "nonpayable",
      "type": "function"
    },
    {
      "inputs": [
        {
          "internalType": "contract IERC20Upgradeable",
          "name": "erc20Token",
          "type": "address"
        },
        {
          "internalType": "address",
          "name": "to",
          "type": "address"
        },
        {
          "internalType": "uint256",
          "name": "amount",
          "type": "uint256"
        }
      ],
      "name": "transferERC20",
      "outputs": [],
      "stateMutability": "nonpayable",
      "type": "function"
    },
    {
      "inputs": [
        {
          "internalType": "address",
          "name": "sender",
          "type": "address"
        },
        {
          "internalType": "address",
          "name": "recipient",
          "type": "address"
        },
        {
          "internalType": "uint256",
          "name": "amount",
          "type": "uint256"
        }
      ],
      "name": "transferFrom",
      "outputs": [
        {
          "internalType": "bool",
          "name": "",
          "type": "bool"
        }
      ],
      "stateMutability": "nonpayable",
      "type": "function"
    },
    {
      "inputs": [
        {
          "internalType": "address",
          "name": "newOwner",
          "type": "address"
        }
      ],
      "name": "transferOwnership",
      "outputs": [],
      "stateMutability": "nonpayable",
      "type": "function"
    }
  ],
  "transactionHash": "0x4cc76151ea3968ad2f67881525707c504ad64dcf477838f45e90d3feef7ebca6",
  "args": [],
  "solcInputHash": "0c88c78b25ac902f6ea3e8f9e19ed24d",
  "bytecode": "0x608060405234801561001057600080fd5b50612a1f806100206000396000f3fe608060405234801561001057600080fd5b506004361061018e5760003560e01c806387a6eeef116100de578063a457c2d711610097578063b99152d011610071578063b99152d01461056e578063c89039c514610594578063dd62ed3e1461059c578063f2fde38b146105ca5761018e565b8063a457c2d7146104f9578063a9059cbb14610525578063b6cce5e2146105515761018e565b806387a6eeef146104775780638da5cb5b146104a357806394217ad1146104ab57806395d89b41146104b35780639db5dbe4146104bb578063a0c1f15e146104f15761018e565b8063395093511161014b57806365e865811161012557806365e865811461033757806370a0823114610425578063715018a61461044b578063873ba41e146104535761018e565b806339509351146102db578063430602371461030757806362a5af3b1461032d5761018e565b8063013054c21461019357806306fdde03146101c2578063095ea7b31461023f57806318160ddd1461027f57806323b872dd14610287578063313ce567146102bd575b600080fd5b6101b0600480360360208110156101a957600080fd5b50356105f0565b60408051918252519081900360200190f35b6101ca61086d565b6040805160208082528351818301528351919283929083019185019080838360005b838110156102045781810151838201526020016101ec565b50505050905090810190601f1680156102315780820380516001836020036101000a031916815260200191505b509250505060405180910390f35b61026b6004803603604081101561025557600080fd5b506001600160a01b038135169060200135610903565b604080519115158252519081900360200190f35b6101b0610921565b61026b6004803603606081101561029d57600080fd5b506001600160a01b03813581169160208101359091169060400135610927565b6102c56109af565b6040805160ff9092168252519081900360200190f35b61026b600480360360408110156102f157600080fd5b506001600160a01b0381351690602001356109b8565b61026b6004803603602081101561031d57600080fd5b50356001600160a01b0316610a06565b610335610acd565b005b61026b600480360360c081101561034d57600080fd5b6001600160a01b03823581169260208101359091169160ff604083013516919081019060808101606082013564010000000081111561038b57600080fd5b82018360208201111561039d57600080fd5b803590602001918460018302840111640100000000831117156103bf57600080fd5b9193909290916020810190356401000000008111156103dd57600080fd5b8201836020820111156103ef57600080fd5b8035906020019184600183028401116401000000008311171561041157600080fd5b9193509150356001600160a01b0316610b6f565b6101b06004803603602081101561043b57600080fd5b50356001600160a01b0316610de2565b610335610dfd565b61045b610ebb565b604080516001600160a01b039092168252519081900360200190f35b6103356004803603604081101561048d57600080fd5b50803590602001356001600160a01b0316610eca565b61045b610fd9565b61045b610fe8565b6101ca610ff7565b610335600480360360608110156104d157600080fd5b506001600160a01b03813581169160208101359091169060400135611058565b61045b61119b565b61026b6004803603604081101561050f57600080fd5b506001600160a01b0381351690602001356111aa565b61026b6004803603604081101561053b57600080fd5b506001600160a01b038135169060200135611212565b6103356004803603602081101561056757600080fd5b5035611226565b6101b06004803603602081101561058457600080fd5b50356001600160a01b0316611269565b61045b61127c565b6101b0600480360360408110156105b257600080fd5b506001600160a01b038135811691602001351661128b565b610335600480360360208110156105e057600080fd5b50356001600160a01b03166112b6565b60006002609854141561064a576040805162461bcd60e51b815260206004820152601f60248201527f5265656e7472616e637947756172643a207265656e7472616e742063616c6c00604482015290519081900360640190fd5b6002609855600061065a836113cb565b9050610666338261147e565b60ca54604080516370a0823160e01b815230600482015290516000926001600160a01b0316916370a08231916024808301926020929190829003018186803b1580156106b157600080fd5b505afa1580156106c5573d6000803e3d6000fd5b505050506040513d60208110156106db57600080fd5b505190506106e761157a565b6001600160a01b03166369328dec6106fd6115ed565b86306040518463ffffffff1660e01b815260040180846001600160a01b03168152602001838152602001826001600160a01b031681526020019350505050602060405180830381600087803b15801561075557600080fd5b505af1158015610769573d6000803e3d6000fd5b505050506040513d602081101561077f57600080fd5b505060ca54604080516370a0823160e01b815230600482015290516000926001600160a01b0316916370a08231916024808301926020929190829003018186803b1580156107cc57600080fd5b505afa1580156107e0573d6000803e3d6000fd5b505050506040513d60208110156107f657600080fd5b5051905060006108068383611632565b9050610825338261081561127c565b6001600160a01b0316919061168f565b6040805185815260208101889052815133927f5c9b0a8fe13a826ca676f5ad4f98c747b5086beb79ab58589b8211b62fa32fb9928290030190a2600160985595945050505050565b60368054604080516020601f60026000196101006001881615020190951694909404938401819004810282018101909252828152606093909290918301828280156108f95780601f106108ce576101008083540402835291602001916108f9565b820191906000526020600020905b8154815290600101906020018083116108dc57829003601f168201915b5050505050905090565b60006109176109106116e6565b84846116ea565b5060015b92915050565b60355490565b60006109348484846117d6565b6109a4846109406116e6565b61099f85604051806060016040528060288152602001612874602891396001600160a01b038a1660009081526034602052604081209061097e6116e6565b6001600160a01b031681526020810191909152604001600020549190611933565b6116ea565b5060015b9392505050565b60385460ff1690565b60006109176109c56116e6565b8461099f85603460006109d66116e6565b6001600160a01b03908116825260208083019390935260409182016000908120918c1681529252902054906119ca565b6000610a106116e6565b6001600160a01b0316610a21610fd9565b6001600160a01b031614610a7c576040805162461bcd60e51b815260206004820181905260248201527f4f776e61626c653a2063616c6c6572206973206e6f7420746865206f776e6572604482015290519081900360640190fd5b609780546001600160a01b0319166001600160a01b0384169081179091556040516000907fa4d7db5805a7ddee85566735eb5d575b0894cef3fe057b4fa1b52090d8c22068908290a3506001919050565b600054610100900460ff1680610ae65750610ae6611a24565b80610af4575060005460ff16155b610b2f5760405162461bcd60e51b815260040180806020018281038252602e815260200180612825602e913960400191505060405180910390fd5b600054610100900460ff16158015610b5a576000805460ff1961ff0019909116610100171660011790555b8015610b6c576000805461ff00191690555b50565b60008054610100900460ff1680610b895750610b89611a24565b80610b97575060005460ff16155b610bd25760405162461bcd60e51b815260040180806020018281038252602e815260200180612825602e913960400191505060405180910390fd5b600054610100900460ff16158015610bfd576000805460ff1961ff0019909116610100171660011790555b60ca80546001600160a01b03808d166001600160a01b03199283161790925560cb8054928c1692909116919091179055610c35611a35565b610c3e836112b6565b610cb185858080601f01602080910402602001604051908101604052809392919081815260200183838082843760009201919091525050604080516020601f8d018190048102820181019092528b815292508b91508a9081908401838280828437600092019190915250611ad292505050565b60008860ff1611610cf35760405162461bcd60e51b81526004018080602001828103825260228152602001806129066022913960400191505060405180910390fd5b610cfc88611b87565b896001600160a01b03167ffba57dff735bfaf5226b0a6e4ea8161ce10896963a36f6db20759f10b0055b408a8a88888c8c8a60405180886001600160a01b031681526020018760ff1681526020018060200180602001846001600160a01b031681526020018381038352888882818152602001925080828437600083820152601f01601f191690910184810383528681526020019050868680828437600083820152604051601f909101601f19169092018290039b50909950505050505050505050a2600191508015610dd5576000805461ff00191690555b5098975050505050505050565b6001600160a01b031660009081526033602052604090205490565b610e056116e6565b6001600160a01b0316610e16610fd9565b6001600160a01b031614610e71576040805162461bcd60e51b815260206004820181905260248201527f4f776e61626c653a2063616c6c6572206973206e6f7420746865206f776e6572604482015290519081900360640190fd5b6065546040516000916001600160a01b0316907f8be0079c531659141344cd1fd0a4f28419497f9722a3daafe3b4186f6b6457e0908390a3606580546001600160a01b0319169055565b60cb546001600160a01b031681565b60026098541415610f22576040805162461bcd60e51b815260206004820152601f60248201527f5265656e7472616e637947756172643a207265656e7472616e742063616c6c00604482015290519081900360640190fd5b60026098556000610f32836113cb565b905060008111610f735760405162461bcd60e51b81526004018080602001828103825260238152602001806128026023913960400191505060405180910390fd5b610f7c83611b9d565b50610f878282611c85565b604080518281526020810185905281516001600160a01b0385169233927fdef5cc95ad9b1c65c586d0fce815ec764b575719636edf58ff2553ae6f110452929081900390910190a35050600160985550565b6065546001600160a01b031690565b6097546001600160a01b031690565b60378054604080516020601f60026000196101006001881615020190951694909404938401819004810282018101909252828152606093909290918301828280156108f95780601f106108ce576101008083540402835291602001916108f9565b6110606116e6565b6001600160a01b0316611071610fe8565b6001600160a01b031614806110a557506110896116e6565b6001600160a01b031661109a610fd9565b6001600160a01b0316145b6110e05760405162461bcd60e51b815260040180806020018281038252603d815260200180612952603d913960400191505060405180910390fd5b60ca546001600160a01b038481169116141561112d5760405162461bcd60e51b815260040180806020018281038252602d81526020018061271f602d913960400191505060405180910390fd5b6111416001600160a01b038416838361168f565b826001600160a01b0316826001600160a01b0316336001600160a01b03167f29fcb7bb954d37295343e742bab21760748bdba4e026e4469a81001839969138846040518082815260200191505060405180910390a4505050565b60ca546001600160a01b031681565b60006109176111b76116e6565b8461099f856040518060600160405280602581526020016129c560259139603460006111e16116e6565b6001600160a01b03908116825260208083019390935260409182016000908120918d16815292529020549190611933565b600061091761121f6116e6565b84846117d6565b61122f81611b9d565b5060408051828152905133917fbb2c10eb8b0d65523a501a1c079906e38af3c4231e31b799d408daacd7ce7226919081900360200190a250565b600061091b61127783610de2565b611d77565b60006112866115ed565b905090565b6001600160a01b03918216600090815260346020908152604080832093909416825291909152205490565b6112be6116e6565b6001600160a01b03166112cf610fd9565b6001600160a01b03161461132a576040805162461bcd60e51b815260206004820181905260248201527f4f776e61626c653a2063616c6c6572206973206e6f7420746865206f776e6572604482015290519081900360640190fd5b6001600160a01b03811661136f5760405162461bcd60e51b815260040180806020018281038252602681526020018061276e6026913960400191505060405180910390fd5b6065546040516001600160a01b038084169216907f8be0079c531659141344cd1fd0a4f28419497f9722a3daafe3b4186f6b6457e090600090a3606580546001600160a01b0319166001600160a01b0392909216919091179055565b6000806113d6610921565b6113e157508161091b565b600061146a6113ee610921565b60ca54604080516370a0823160e01b815230600482015290516001600160a01b03909216916370a0823191602480820192602092909190829003018186803b15801561143957600080fd5b505afa15801561144d573d6000803e3d6000fd5b505050506040513d602081101561146357600080fd5b5051611e13565b90506114768482611e34565b949350505050565b6001600160a01b0382166114c35760405162461bcd60e51b815260040180806020018281038252602181526020018061289c6021913960400191505060405180910390fd5b6114cf826000836116e1565b61150c8160405180606001604052806022815260200161274c602291396001600160a01b0385166000908152603360205260409020549190611933565b6001600160a01b0383166000908152603360205260409020556035546115329082611632565b6035556040805182815290516000916001600160a01b038516917fddf252ad1be2c89b69c2b068fc378daa952ba7f163c4a11628f55a4df523b3ef9181900360200190a35050565b6000611584611e55565b6001600160a01b0316630261bf8b6040518163ffffffff1660e01b815260040160206040518083038186803b1580156115bc57600080fd5b505afa1580156115d0573d6000803e3d6000fd5b505050506040513d60208110156115e657600080fd5b5051905090565b60ca54604080516358b50cef60e11b815290516000926001600160a01b03169163b16a19de916004808301926020929190829003018186803b1580156115bc57600080fd5b600082821115611689576040805162461bcd60e51b815260206004820152601e60248201527f536166654d6174683a207375627472616374696f6e206f766572666c6f770000604482015290519081900360640190fd5b50900390565b604080516001600160a01b038416602482015260448082018490528251808303909101815260649091019091526020810180516001600160e01b031663a9059cbb60e01b1790526116e1908490611f92565b505050565b3390565b6001600160a01b03831661172f5760405162461bcd60e51b81526004018080602001828103825260248152602001806128e26024913960400191505060405180910390fd5b6001600160a01b0382166117745760405162461bcd60e51b81526004018080602001828103825260228152602001806127946022913960400191505060405180910390fd5b6001600160a01b03808416600081815260346020908152604080832094871680845294825291829020859055815185815291517f8c5be1e5ebec7d5bd14f71427d1e84f3dd0314c0f7b2291e5b200ac8c7c3b9259281900390910190a3505050565b6001600160a01b03831661181b5760405162461bcd60e51b81526004018080602001828103825260258152602001806128bd6025913960400191505060405180910390fd5b6001600160a01b0382166118605760405162461bcd60e51b81526004018080602001828103825260238152602001806126fc6023913960400191505060405180910390fd5b61186b8383836116e1565b6118a8816040518060600160405280602681526020016127b6602691396001600160a01b0386166000908152603360205260409020549190611933565b6001600160a01b0380851660009081526033602052604080822093909355908416815220546118d790826119ca565b6001600160a01b0380841660008181526033602090815260409182902094909455805185815290519193928716927fddf252ad1be2c89b69c2b068fc378daa952ba7f163c4a11628f55a4df523b3ef92918290030190a3505050565b600081848411156119c25760405162461bcd60e51b81526004018080602001828103825283818151815260200191508051906020019080838360005b8381101561198757818101518382015260200161196f565b50505050905090810190601f1680156119b45780820380516001836020036101000a031916815260200191505b509250505060405180910390fd5b505050900390565b6000828201838110156109a8576040805162461bcd60e51b815260206004820152601b60248201527f536166654d6174683a206164646974696f6e206f766572666c6f770000000000604482015290519081900360640190fd5b6000611a2f30612043565b15905090565b600054610100900460ff1680611a4e5750611a4e611a24565b80611a5c575060005460ff16155b611a975760405162461bcd60e51b815260040180806020018281038252602e815260200180612825602e913960400191505060405180910390fd5b600054610100900460ff16158015611ac2576000805460ff1961ff0019909116610100171660011790555b611aca610acd565b610b5a612049565b600054610100900460ff1680611aeb5750611aeb611a24565b80611af9575060005460ff16155b611b345760405162461bcd60e51b815260040180806020018281038252602e815260200180612825602e913960400191505060405180910390fd5b600054610100900460ff16158015611b5f576000805460ff1961ff0019909116610100171660011790555b611b67610acd565b611b718383612142565b80156116e1576000805461ff0019169055505050565b6038805460ff191660ff92909216919091179055565b600080611ba86115ed565b9050611bbf6001600160a01b03821633308661221a565b611bdb611bca61157a565b6001600160a01b038316908561227a565b611be361157a565b6001600160a01b031663e8eda9df611bf96115ed565b8530611c0361238d565b6040518563ffffffff1660e01b815260040180856001600160a01b03168152602001848152602001836001600160a01b031681526020018261ffff168152602001945050505050600060405180830381600087803b158015611c6457600080fd5b505af1158015611c78573d6000803e3d6000fd5b5060009695505050505050565b6001600160a01b038216611ce0576040805162461bcd60e51b815260206004820152601f60248201527f45524332303a206d696e7420746f20746865207a65726f206164647265737300604482015290519081900360640190fd5b611cec600083836116e1565b603554611cf990826119ca565b6035556001600160a01b038216600090815260336020526040902054611d1f90826119ca565b6001600160a01b03831660008181526033602090815260408083209490945583518581529351929391927fddf252ad1be2c89b69c2b068fc378daa952ba7f163c4a11628f55a4df523b3ef9281900390910190a35050565b600080611d82610921565b611d8d57508161091b565b60ca54604080516370a0823160e01b8152306004820152905160009261146a926001600160a01b03909116916370a0823191602480820192602092909190829003018186803b158015611ddf57600080fd5b505afa158015611df3573d6000803e3d6000fd5b505050506040513d6020811015611e0957600080fd5b5051611e13610921565b600080611e2884670de0b6b3a7640000612392565b905061147681846123eb565b600080611e418385612392565b905061147681670de0b6b3a76400006123eb565b600080611e6061242d565b905060cb60009054906101000a90046001600160a01b03166001600160a01b031663365ccbbf6040518163ffffffff1660e01b815260040160006040518083038186803b158015611eb057600080fd5b505afa158015611ec4573d6000803e3d6000fd5b505050506040513d6000823e601f3d908101601f191682016040526020811015611eed57600080fd5b8101908080516040519392919084640100000000821115611f0d57600080fd5b908301906020820185811115611f2257600080fd5b8251866020820283011164010000000082111715611f3f57600080fd5b82525081516020918201928201910280838360005b83811015611f6c578181015183820152602001611f54565b505050509050016040525050508181518110611f8457fe5b602002602001015191505090565b6060611fe7826040518060400160405280602081526020017f5361666545524332303a206c6f772d6c6576656c2063616c6c206661696c6564815250856001600160a01b03166124329092919063ffffffff16565b8051909150156116e15780806020019051602081101561200657600080fd5b50516116e15760405162461bcd60e51b815260040180806020018281038252602a815260200180612928602a913960400191505060405180910390fd5b3b151590565b600054610100900460ff16806120625750612062611a24565b80612070575060005460ff16155b6120ab5760405162461bcd60e51b815260040180806020018281038252602e815260200180612825602e913960400191505060405180910390fd5b600054610100900460ff161580156120d6576000805460ff1961ff0019909116610100171660011790555b60006120e06116e6565b606580546001600160a01b0319166001600160a01b038316908117909155604051919250906000907f8be0079c531659141344cd1fd0a4f28419497f9722a3daafe3b4186f6b6457e0908290a3508015610b6c576000805461ff001916905550565b600054610100900460ff168061215b575061215b611a24565b80612169575060005460ff16155b6121a45760405162461bcd60e51b815260040180806020018281038252602e815260200180612825602e913960400191505060405180910390fd5b600054610100900460ff161580156121cf576000805460ff1961ff0019909116610100171660011790555b82516121e2906036906020860190612668565b5081516121f6906037906020850190612668565b506038805460ff1916601217905580156116e1576000805461ff0019169055505050565b604080516001600160a01b0380861660248301528416604482015260648082018490528251808303909101815260849091019091526020810180516001600160e01b03166323b872dd60e01b179052612274908590611f92565b50505050565b801580612300575060408051636eb1769f60e11b81523060048201526001600160a01b03848116602483015291519185169163dd62ed3e91604480820192602092909190829003018186803b1580156122d257600080fd5b505afa1580156122e6573d6000803e3d6000fd5b505050506040513d60208110156122fc57600080fd5b5051155b61233b5760405162461bcd60e51b815260040180806020018281038252603681526020018061298f6036913960400191505060405180910390fd5b604080516001600160a01b038416602482015260448082018490528251808303909101815260649091019091526020810180516001600160e01b031663095ea7b360e01b1790526116e1908490611f92565b60bc90565b6000826123a15750600061091b565b828202828482816123ae57fe5b04146109a85760405162461bcd60e51b81526004018080602001828103825260218152602001806128536021913960400191505060405180910390fd5b60006109a883836040518060400160405280601a81526020017f536166654d6174683a206469766973696f6e206279207a65726f000000000000815250612441565b600090565b606061147684846000856124a6565b600081836124905760405162461bcd60e51b815260206004820181815283516024840152835190928392604490910191908501908083836000831561198757818101518382015260200161196f565b50600083858161249c57fe5b0495945050505050565b6060824710156124e75760405162461bcd60e51b81526004018080602001828103825260268152602001806127dc6026913960400191505060405180910390fd5b6124f085612043565b612541576040805162461bcd60e51b815260206004820152601d60248201527f416464726573733a2063616c6c20746f206e6f6e2d636f6e7472616374000000604482015290519081900360640190fd5b60006060866001600160a01b031685876040518082805190602001908083835b602083106125805780518252601f199092019160209182019101612561565b6001836020036101000a03801982511681845116808217855250505050505090500191505060006040518083038185875af1925050503d80600081146125e2576040519150601f19603f3d011682016040523d82523d6000602084013e6125e7565b606091505b50915091506125f7828286612602565b979650505050505050565b606083156126115750816109a8565b8251156126215782518084602001fd5b60405162461bcd60e51b815260206004820181815284516024840152845185939192839260440191908501908083836000831561198757818101518382015260200161196f565b828054600181600116156101000203166002900490600052602060002090601f016020900481019282601f106126a957805160ff19168380011785556126d6565b828001600101855582156126d6579182015b828111156126d65782518255916020019190600101906126bb565b506126e29291506126e6565b5090565b5b808211156126e257600081556001016126e756fe45524332303a207472616e7366657220746f20746865207a65726f206164647265737341546f6b656e5969656c64536f757263652f61546f6b656e2d7472616e736665722d6e6f742d616c6c6f77656445524332303a206275726e20616d6f756e7420657863656564732062616c616e63654f776e61626c653a206e6577206f776e657220697320746865207a65726f206164647265737345524332303a20617070726f766520746f20746865207a65726f206164647265737345524332303a207472616e7366657220616d6f756e7420657863656564732062616c616e6365416464726573733a20696e73756666696369656e742062616c616e636520666f722063616c6c41546f6b656e5969656c64536f757263652f7368617265732d657175616c2d7a65726f496e697469616c697a61626c653a20636f6e747261637420697320616c726561647920696e697469616c697a6564536166654d6174683a206d756c7469706c69636174696f6e206f766572666c6f7745524332303a207472616e7366657220616d6f756e74206578636565647320616c6c6f77616e636545524332303a206275726e2066726f6d20746865207a65726f206164647265737345524332303a207472616e736665722066726f6d20746865207a65726f206164647265737345524332303a20617070726f76652066726f6d20746865207a65726f206164647265737341546f6b656e5969656c64536f757263652f646563696d616c732d67742d7a65726f5361666545524332303a204552433230206f7065726174696f6e20646964206e6f7420737563636565646f6e6c794f776e65724f7241737365744d616e616765723a2063616c6c6572206973206e6f74206f776e6572206f72206173736574206d616e616765725361666545524332303a20617070726f76652066726f6d206e6f6e2d7a65726f20746f206e6f6e2d7a65726f20616c6c6f77616e636545524332303a2064656372656173656420616c6c6f77616e63652062656c6f77207a65726fa26469706673582212209ce68df6b4aa0a01b31667908504a7c1d56334405c2a80d9f0803e52d730a31664736f6c634300060c0033",
  "devdoc": {
    "details": "This contract inherits from the ERC20 implementation to keep track of users depositsThis contract inherits AssetManager which extends OwnableUpgradable",
    "kind": "dev",
    "methods": {
      "allowance(address,address)": {
        "details": "See {IERC20-allowance}."
      },
      "approve(address,uint256)": {
        "details": "See {IERC20-approve}. Requirements: - `spender` cannot be the zero address."
      },
      "assetManager()": {
        "details": "Returns the address of the current asset manager.",
        "returns": {
          "_0": "The address of the current _assetManager"
        }
      },
      "balanceOf(address)": {
        "details": "See {IERC20-balanceOf}."
      },
      "balanceOfToken(address)": {
        "params": {
          "addr": "User address"
        },
        "returns": {
          "_0": "The underlying balance of asset tokens"
        }
      },
      "decimals()": {
        "details": "Returns the number of decimals used to get its user representation. For example, if `decimals` equals `2`, a balance of `505` tokens should be displayed to a user as `5,05` (`505 / 10 ** 2`). Tokens usually opt for a value of 18, imitating the relationship between Ether and Wei. This is the value {ERC20} uses, unless {_setupDecimals} is called. NOTE: This information is only used for _display_ purposes: it in no way affects any of the arithmetic of the contract, including {IERC20-balanceOf} and {IERC20-transfer}."
      },
      "decreaseAllowance(address,uint256)": {
        "details": "Atomically decreases the allowance granted to `spender` by the caller. This is an alternative to {approve} that can be used as a mitigation for problems described in {IERC20-approve}. Emits an {Approval} event indicating the updated allowance. Requirements: - `spender` cannot be the zero address. - `spender` must have allowance for the caller of at least `subtractedValue`."
      },
      "depositToken()": {
        "returns": {
          "_0": "The ERC20 asset token address"
        }
      },
      "increaseAllowance(address,uint256)": {
        "details": "Atomically increases the allowance granted to `spender` by the caller. This is an alternative to {approve} that can be used as a mitigation for problems described in {IERC20-approve}. Emits an {Approval} event indicating the updated allowance. Requirements: - `spender` cannot be the zero address."
      },
      "initialize(address,address,uint8,string,string,address)": {
        "params": {
          "_aToken": "Aave aToken address",
          "_decimals": "Number of decimals the shares (inhereted ERC20) will have. Set as same as underlying asset to ensure sane ExchangeRates",
          "_lendingPoolAddressesProviderRegistry": "Aave lendingPoolAddressesProviderRegistry address",
          "_name": "Token name for the underlying shares ERC20",
          "_symbol": "Token symbol for the underlying shares ERC20"
        }
      },
      "name()": {
        "details": "Returns the name of the token."
      },
      "owner()": {
        "details": "Returns the address of the current owner."
      },
      "redeemToken(uint256)": {
        "details": "Shares corresponding to the number of tokens withdrawn are burnt from the user's balanceAsset tokens are withdrawn from Aave, then transferred from the yield source to the user's wallet",
        "params": {
          "redeemAmount": "The amount of asset tokens to be redeemed"
        },
        "returns": {
          "_0": "The actual amount of asset tokens that were redeemed"
        }
      },
      "renounceOwnership()": {
        "details": "Leaves the contract without owner. It will not be possible to call `onlyOwner` functions anymore. Can only be called by the current owner. NOTE: Renouncing ownership will leave the contract without an owner, thereby removing any functionality that is only available to the owner."
      },
      "setAssetManager(address)": {
        "details": "Throws if called by any account other than the owner.",
        "params": {
          "newAssetManager": "The address of the desired new _assetManager"
        },
        "returns": {
          "_0": "Boolean to indicate if the operation was successful or not"
        }
      },
      "sponsor(uint256)": {
        "details": "This allows anyone to distribute tokens among the share holders",
        "params": {
          "amount": "The amount of tokens to deposit"
        }
      },
      "supplyTokenTo(uint256,address)": {
        "details": "Shares corresponding to the number of tokens supplied are mint to the user's balanceAsset tokens are supplied to the yield source, then deposited into Aave",
        "params": {
          "mintAmount": "The amount of asset tokens to be supplied",
          "to": "The user whose balance will receive the tokens"
        }
      },
      "symbol()": {
        "details": "Returns the symbol of the token, usually a shorter version of the name."
      },
      "totalSupply()": {
        "details": "See {IERC20-totalSupply}."
      },
      "transfer(address,uint256)": {
        "details": "See {IERC20-transfer}. Requirements: - `recipient` cannot be the zero address. - the caller must have a balance of at least `amount`."
      },
      "transferERC20(address,address,uint256)": {
        "details": "This function is only callable by the owner or asset manager",
        "params": {
          "amount": "The amount of tokens to transfer",
          "erc20Token": "The ERC20 token to transfer",
          "to": "The recipient of the tokens"
        }
      },
      "transferFrom(address,address,uint256)": {
        "details": "See {IERC20-transferFrom}. Emits an {Approval} event indicating the updated allowance. This is not required by the EIP. See the note at the beginning of {ERC20}. Requirements: - `sender` and `recipient` cannot be the zero address. - `sender` must have a balance of at least `amount`. - the caller must have allowance for ``sender``'s tokens of at least `amount`."
      },
      "transferOwnership(address)": {
        "details": "Transfers ownership of the contract to a new account (`newOwner`). Can only be called by the current owner."
      }
    },
    "title": "Aave Yield Source integration contract, implementing PoolTogether's generic yield source interface",
    "version": 1
  },
  "userdoc": {
    "events": {
      "ATokenYieldSourceInitialized(address,address,uint8,string,string,address)": {
        "notice": "Emitted when the yield source is initialized"
      },
      "RedeemedToken(address,uint256,uint256)": {
        "notice": "Emitted when asset tokens are redeemed from the yield source"
      },
      "Sponsored(address,uint256)": {
        "notice": "Emitted when asset tokens are supplied to sponsor the yield source"
      },
      "SuppliedTokenTo(address,uint256,uint256,address)": {
        "notice": "Emitted when asset tokens are supplied to the yield source"
      },
      "TransferredERC20(address,address,uint256,address)": {
        "notice": "Emitted when ERC20 tokens other than yield source's aToken are withdrawn from the yield source"
      }
    },
    "kind": "user",
    "methods": {
      "aToken()": {
        "notice": "Interface for the yield-bearing Aave aToken"
      },
      "assetManager()": {
        "notice": "Gets the current _assetManager"
      },
      "balanceOfToken(address)": {
        "notice": "Returns user total balance (in asset tokens). This includes the deposits and interest."
      },
      "depositToken()": {
        "notice": "Returns the ERC20 asset token used for deposits"
      },
      "freeze()": {
        "notice": "Mock Initializer to prevent "
      },
      "initialize(address,address,uint8,string,string,address)": {
        "notice": "Initializes the yield source with Aave aToken"
      },
      "lendingPoolAddressesProviderRegistry()": {
        "notice": "Interface for Aave lendingPoolAddressesProviderRegistry"
      },
      "redeemToken(uint256)": {
        "notice": "Redeems asset tokens from the yield source"
      },
      "setAssetManager(address)": {
        "notice": "Set the initial asset manager"
      },
      "sponsor(uint256)": {
        "notice": "Allows someone to deposit into the yield source without receiving any shares"
      },
      "supplyTokenTo(uint256,address)": {
        "notice": "Supplies asset tokens to the yield source"
      },
      "transferERC20(address,address,uint256)": {
        "notice": "Transfer ERC20 tokens other than the aAtokens held by this contract to the recipient address"
      }
    },
    "notice": "Yield source for a PoolTogether prize pool that generates yield by depositing into Aave V2",
    "version": 1
  },
  "storageLayout": {
    "storage": [
      {
        "astId": 8399,
        "contract": "contracts/yield-source/ATokenYieldSource.sol:ATokenYieldSource",
        "label": "_initialized",
        "offset": 0,
        "slot": "0",
        "type": "t_bool"
      },
      {
        "astId": 8402,
        "contract": "contracts/yield-source/ATokenYieldSource.sol:ATokenYieldSource",
        "label": "_initializing",
        "offset": 1,
        "slot": "0",
        "type": "t_bool"
      },
      {
        "astId": 9567,
        "contract": "contracts/yield-source/ATokenYieldSource.sol:ATokenYieldSource",
        "label": "__gap",
        "offset": 0,
        "slot": "1",
        "type": "t_array(t_uint256)50_storage"
      },
      {
        "astId": 8478,
        "contract": "contracts/yield-source/ATokenYieldSource.sol:ATokenYieldSource",
        "label": "_balances",
        "offset": 0,
        "slot": "51",
        "type": "t_mapping(t_address,t_uint256)"
      },
      {
        "astId": 8484,
        "contract": "contracts/yield-source/ATokenYieldSource.sol:ATokenYieldSource",
        "label": "_allowances",
        "offset": 0,
        "slot": "52",
        "type": "t_mapping(t_address,t_mapping(t_address,t_uint256))"
      },
      {
        "astId": 8486,
        "contract": "contracts/yield-source/ATokenYieldSource.sol:ATokenYieldSource",
        "label": "_totalSupply",
        "offset": 0,
        "slot": "53",
        "type": "t_uint256"
      },
      {
        "astId": 8488,
        "contract": "contracts/yield-source/ATokenYieldSource.sol:ATokenYieldSource",
        "label": "_name",
        "offset": 0,
        "slot": "54",
        "type": "t_string_storage"
      },
      {
        "astId": 8490,
        "contract": "contracts/yield-source/ATokenYieldSource.sol:ATokenYieldSource",
        "label": "_symbol",
        "offset": 0,
        "slot": "55",
        "type": "t_string_storage"
      },
      {
        "astId": 8492,
        "contract": "contracts/yield-source/ATokenYieldSource.sol:ATokenYieldSource",
        "label": "_decimals",
        "offset": 0,
        "slot": "56",
        "type": "t_uint8"
      },
      {
        "astId": 8987,
        "contract": "contracts/yield-source/ATokenYieldSource.sol:ATokenYieldSource",
        "label": "__gap",
        "offset": 0,
        "slot": "57",
        "type": "t_array(t_uint256)44_storage"
      },
      {
        "astId": 7917,
        "contract": "contracts/yield-source/ATokenYieldSource.sol:ATokenYieldSource",
        "label": "_owner",
        "offset": 0,
        "slot": "101",
        "type": "t_address"
      },
      {
        "astId": 8036,
        "contract": "contracts/yield-source/ATokenYieldSource.sol:ATokenYieldSource",
        "label": "__gap",
        "offset": 0,
        "slot": "102",
        "type": "t_array(t_uint256)49_storage"
      },
      {
        "astId": 9959,
        "contract": "contracts/yield-source/ATokenYieldSource.sol:ATokenYieldSource",
        "label": "_assetManager",
        "offset": 0,
        "slot": "151",
        "type": "t_address"
      },
      {
        "astId": 9582,
        "contract": "contracts/yield-source/ATokenYieldSource.sol:ATokenYieldSource",
        "label": "_status",
        "offset": 0,
        "slot": "152",
        "type": "t_uint256"
      },
      {
        "astId": 9625,
        "contract": "contracts/yield-source/ATokenYieldSource.sol:ATokenYieldSource",
        "label": "__gap",
        "offset": 0,
        "slot": "153",
        "type": "t_array(t_uint256)49_storage"
      },
      {
        "astId": 10630,
        "contract": "contracts/yield-source/ATokenYieldSource.sol:ATokenYieldSource",
        "label": "aToken",
        "offset": 0,
        "slot": "202",
        "type": "t_contract(ATokenInterface)10033"
      },
      {
        "astId": 10633,
        "contract": "contracts/yield-source/ATokenYieldSource.sol:ATokenYieldSource",
        "label": "lendingPoolAddressesProviderRegistry",
        "offset": 0,
        "slot": "203",
        "type": "t_contract(ILendingPoolAddressesProviderRegistry)1187"
      }
    ],
    "types": {
      "t_address": {
        "encoding": "inplace",
        "label": "address",
        "numberOfBytes": "20"
      },
      "t_array(t_uint256)44_storage": {
        "base": "t_uint256",
        "encoding": "inplace",
        "label": "uint256[44]",
        "numberOfBytes": "1408"
      },
      "t_array(t_uint256)49_storage": {
        "base": "t_uint256",
        "encoding": "inplace",
        "label": "uint256[49]",
        "numberOfBytes": "1568"
      },
      "t_array(t_uint256)50_storage": {
        "base": "t_uint256",
        "encoding": "inplace",
        "label": "uint256[50]",
        "numberOfBytes": "1600"
      },
      "t_bool": {
        "encoding": "inplace",
        "label": "bool",
        "numberOfBytes": "1"
      },
      "t_contract(ATokenInterface)10033": {
        "encoding": "inplace",
        "label": "contract ATokenInterface",
        "numberOfBytes": "20"
      },
      "t_contract(ILendingPoolAddressesProviderRegistry)1187": {
        "encoding": "inplace",
        "label": "contract ILendingPoolAddressesProviderRegistry",
        "numberOfBytes": "20"
      },
      "t_mapping(t_address,t_mapping(t_address,t_uint256))": {
        "encoding": "mapping",
        "key": "t_address",
        "label": "mapping(address => mapping(address => uint256))",
        "numberOfBytes": "32",
        "value": "t_mapping(t_address,t_uint256)"
      },
      "t_mapping(t_address,t_uint256)": {
        "encoding": "mapping",
        "key": "t_address",
        "label": "mapping(address => uint256)",
        "numberOfBytes": "32",
        "value": "t_uint256"
      },
      "t_string_storage": {
        "encoding": "bytes",
        "label": "string",
        "numberOfBytes": "32"
      },
      "t_uint256": {
        "encoding": "inplace",
        "label": "uint256",
        "numberOfBytes": "32"
      },
      "t_uint8": {
        "encoding": "inplace",
        "label": "uint8",
        "numberOfBytes": "1"
      }
    }
  }
}